{
  "_format": "hh-sol-artifact-1",
  "contractName": "BoredApe",
  "sourceName": "contracts/BoredApe.sol",
  "abi": [
    {
      "inputs": [
        {
          "internalType": "string",
          "name": "uri",
          "type": "string"
        },
        {
          "internalType": "bytes32",
          "name": "merkleroot",
          "type": "bytes32"
        },
        {
          "internalType": "address",
          "name": "_proxyRegistryAddress",
          "type": "address"
        }
      ],
      "stateMutability": "nonpayable",
      "type": "constructor"
    },
    {
      "anonymous": false,
      "inputs": [
        {
          "indexed": true,
          "internalType": "address",
          "name": "owner",
          "type": "address"
        },
        {
          "indexed": true,
          "internalType": "address",
          "name": "approved",
          "type": "address"
        },
        {
          "indexed": true,
          "internalType": "uint256",
          "name": "tokenId",
          "type": "uint256"
        }
      ],
      "name": "Approval",
      "type": "event"
    },
    {
      "anonymous": false,
      "inputs": [
        {
          "indexed": true,
          "internalType": "address",
          "name": "owner",
          "type": "address"
        },
        {
          "indexed": true,
          "internalType": "address",
          "name": "operator",
          "type": "address"
        },
        {
          "indexed": false,
          "internalType": "bool",
          "name": "approved",
          "type": "bool"
        }
      ],
      "name": "ApprovalForAll",
      "type": "event"
    },
    {
      "anonymous": false,
      "inputs": [
        {
          "indexed": true,
          "internalType": "contract IERC20",
          "name": "token",
          "type": "address"
        },
        {
          "indexed": false,
          "internalType": "address",
          "name": "to",
          "type": "address"
        },
        {
          "indexed": false,
          "internalType": "uint256",
          "name": "amount",
          "type": "uint256"
        }
      ],
      "name": "ERC20PaymentReleased",
      "type": "event"
    },
    {
      "anonymous": false,
      "inputs": [
        {
          "indexed": true,
          "internalType": "address",
          "name": "previousOwner",
          "type": "address"
        },
        {
          "indexed": true,
          "internalType": "address",
          "name": "newOwner",
          "type": "address"
        }
      ],
      "name": "OwnershipTransferred",
      "type": "event"
    },
    {
      "anonymous": false,
      "inputs": [
        {
          "indexed": false,
          "internalType": "address",
          "name": "account",
          "type": "address"
        },
        {
          "indexed": false,
          "internalType": "uint256",
          "name": "shares",
          "type": "uint256"
        }
      ],
      "name": "PayeeAdded",
      "type": "event"
    },
    {
      "anonymous": false,
      "inputs": [
        {
          "indexed": false,
          "internalType": "address",
          "name": "from",
          "type": "address"
        },
        {
          "indexed": false,
          "internalType": "uint256",
          "name": "amount",
          "type": "uint256"
        }
      ],
      "name": "PaymentReceived",
      "type": "event"
    },
    {
      "anonymous": false,
      "inputs": [
        {
          "indexed": false,
          "internalType": "address",
          "name": "to",
          "type": "address"
        },
        {
          "indexed": false,
          "internalType": "uint256",
          "name": "amount",
          "type": "uint256"
        }
      ],
      "name": "PaymentReleased",
      "type": "event"
    },
    {
      "anonymous": false,
      "inputs": [
        {
          "indexed": true,
          "internalType": "address",
          "name": "from",
          "type": "address"
        },
        {
          "indexed": true,
          "internalType": "address",
          "name": "to",
          "type": "address"
        },
        {
          "indexed": true,
          "internalType": "uint256",
          "name": "tokenId",
          "type": "uint256"
        }
      ],
      "name": "Transfer",
      "type": "event"
    },
    {
      "inputs": [
        {
          "internalType": "address",
          "name": "",
          "type": "address"
        }
      ],
      "name": "_presaleClaimed",
      "outputs": [
        {
          "internalType": "uint256",
          "name": "",
          "type": "uint256"
        }
      ],
      "stateMutability": "view",
      "type": "function"
    },
    {
      "inputs": [
        {
          "internalType": "address",
          "name": "to",
          "type": "address"
        },
        {
          "internalType": "uint256",
          "name": "tokenId",
          "type": "uint256"
        }
      ],
      "name": "approve",
      "outputs": [],
      "stateMutability": "nonpayable",
      "type": "function"
    },
    {
      "inputs": [
        {
          "internalType": "address",
          "name": "owner",
          "type": "address"
        }
      ],
      "name": "balanceOf",
      "outputs": [
        {
          "internalType": "uint256",
          "name": "",
          "type": "uint256"
        }
      ],
      "stateMutability": "view",
      "type": "function"
    },
    {
      "inputs": [],
      "name": "baseExtension",
      "outputs": [
        {
          "internalType": "string",
          "name": "",
          "type": "string"
        }
      ],
      "stateMutability": "view",
      "type": "function"
    },
    {
      "inputs": [],
      "name": "baseURI",
      "outputs": [
        {
          "internalType": "string",
          "name": "",
          "type": "string"
        }
      ],
      "stateMutability": "view",
      "type": "function"
    },
    {
      "inputs": [
        {
          "internalType": "uint256",
          "name": "tokenId",
          "type": "uint256"
        }
      ],
      "name": "getApproved",
      "outputs": [
        {
          "internalType": "address",
          "name": "",
          "type": "address"
        }
      ],
      "stateMutability": "view",
      "type": "function"
    },
    {
      "inputs": [
        {
          "internalType": "address",
          "name": "owner",
          "type": "address"
        },
        {
          "internalType": "address",
          "name": "operator",
          "type": "address"
        }
      ],
      "name": "isApprovedForAll",
      "outputs": [
        {
          "internalType": "bool",
          "name": "",
          "type": "bool"
        }
      ],
      "stateMutability": "view",
      "type": "function"
    },
    {
      "inputs": [],
      "name": "maxSupply",
      "outputs": [
        {
          "internalType": "uint256",
          "name": "",
          "type": "uint256"
        }
      ],
      "stateMutability": "view",
      "type": "function"
    },
    {
      "inputs": [],
      "name": "name",
      "outputs": [
        {
          "internalType": "string",
          "name": "",
          "type": "string"
        }
      ],
      "stateMutability": "view",
      "type": "function"
    },
    {
      "inputs": [],
      "name": "notRevealedUri",
      "outputs": [
        {
          "internalType": "string",
          "name": "",
          "type": "string"
        }
      ],
      "stateMutability": "view",
      "type": "function"
    },
    {
      "inputs": [],
      "name": "owner",
      "outputs": [
        {
          "internalType": "address",
          "name": "",
          "type": "address"
        }
      ],
      "stateMutability": "view",
      "type": "function"
    },
    {
      "inputs": [
        {
          "internalType": "uint256",
          "name": "tokenId",
          "type": "uint256"
        }
      ],
      "name": "ownerOf",
      "outputs": [
        {
          "internalType": "address",
          "name": "",
          "type": "address"
        }
      ],
      "stateMutability": "view",
      "type": "function"
    },
    {
      "inputs": [],
      "name": "paused",
      "outputs": [
        {
          "internalType": "bool",
          "name": "",
          "type": "bool"
        }
      ],
      "stateMutability": "view",
      "type": "function"
    },
    {
      "inputs": [
        {
          "internalType": "uint256",
          "name": "index",
          "type": "uint256"
        }
      ],
      "name": "payee",
      "outputs": [
        {
          "internalType": "address",
          "name": "",
          "type": "address"
        }
      ],
      "stateMutability": "view",
      "type": "function"
    },
    {
      "inputs": [],
      "name": "presaleM",
      "outputs": [
        {
          "internalType": "bool",
          "name": "",
          "type": "bool"
        }
      ],
      "stateMutability": "view",
      "type": "function"
    },
    {
      "inputs": [
        {
          "internalType": "address",
          "name": "account",
          "type": "address"
        },
        {
          "internalType": "uint256",
          "name": "_amount",
          "type": "uint256"
        },
        {
          "internalType": "bytes32[]",
          "name": "_proof",
          "type": "bytes32[]"
        }
      ],
      "name": "presaleMint",
      "outputs": [],
      "stateMutability": "payable",
      "type": "function"
    },
    {
      "inputs": [],
      "name": "publicM",
      "outputs": [
        {
          "internalType": "bool",
          "name": "",
          "type": "bool"
        }
      ],
      "stateMutability": "view",
      "type": "function"
    },
    {
      "inputs": [
        {
          "internalType": "uint256",
          "name": "_amount",
          "type": "uint256"
        }
      ],
      "name": "publicSaleMint",
      "outputs": [],
      "stateMutability": "payable",
      "type": "function"
    },
    {
      "inputs": [
        {
          "internalType": "address",
          "name": "account",
          "type": "address"
        }
      ],
      "name": "releasable",
      "outputs": [
        {
          "internalType": "uint256",
          "name": "",
          "type": "uint256"
        }
      ],
      "stateMutability": "view",
      "type": "function"
    },
    {
      "inputs": [
        {
          "internalType": "contract IERC20",
          "name": "token",
          "type": "address"
        },
        {
          "internalType": "address",
          "name": "account",
          "type": "address"
        }
      ],
      "name": "releasable",
      "outputs": [
        {
          "internalType": "uint256",
          "name": "",
          "type": "uint256"
        }
      ],
      "stateMutability": "view",
      "type": "function"
    },
    {
      "inputs": [
        {
          "internalType": "address payable",
          "name": "account",
          "type": "address"
        }
      ],
      "name": "release",
      "outputs": [],
      "stateMutability": "nonpayable",
      "type": "function"
    },
    {
      "inputs": [
        {
          "internalType": "contract IERC20",
          "name": "token",
          "type": "address"
        },
        {
          "internalType": "address",
          "name": "account",
          "type": "address"
        }
      ],
      "name": "release",
      "outputs": [],
      "stateMutability": "nonpayable",
      "type": "function"
    },
    {
      "inputs": [
        {
          "internalType": "contract IERC20",
          "name": "token",
          "type": "address"
        },
        {
          "internalType": "address",
          "name": "account",
          "type": "address"
        }
      ],
      "name": "released",
      "outputs": [
        {
          "internalType": "uint256",
          "name": "",
          "type": "uint256"
        }
      ],
      "stateMutability": "view",
      "type": "function"
    },
    {
      "inputs": [
        {
          "internalType": "address",
          "name": "account",
          "type": "address"
        }
      ],
      "name": "released",
      "outputs": [
        {
          "internalType": "uint256",
          "name": "",
          "type": "uint256"
        }
      ],
      "stateMutability": "view",
      "type": "function"
    },
    {
      "inputs": [],
      "name": "renounceOwnership",
      "outputs": [],
      "stateMutability": "nonpayable",
      "type": "function"
    },
    {
      "inputs": [],
      "name": "reveal",
      "outputs": [],
      "stateMutability": "nonpayable",
      "type": "function"
    },
    {
      "inputs": [],
      "name": "revealed",
      "outputs": [
        {
          "internalType": "bool",
          "name": "",
          "type": "bool"
        }
      ],
      "stateMutability": "view",
      "type": "function"
    },
    {
      "inputs": [],
      "name": "root",
      "outputs": [
        {
          "internalType": "bytes32",
          "name": "",
          "type": "bytes32"
        }
      ],
      "stateMutability": "view",
      "type": "function"
    },
    {
      "inputs": [
        {
          "internalType": "address",
          "name": "from",
          "type": "address"
        },
        {
          "internalType": "address",
          "name": "to",
          "type": "address"
        },
        {
          "internalType": "uint256",
          "name": "tokenId",
          "type": "uint256"
        }
      ],
      "name": "safeTransferFrom",
      "outputs": [],
      "stateMutability": "nonpayable",
      "type": "function"
    },
    {
      "inputs": [
        {
          "internalType": "address",
          "name": "from",
          "type": "address"
        },
        {
          "internalType": "address",
          "name": "to",
          "type": "address"
        },
        {
          "internalType": "uint256",
          "name": "tokenId",
          "type": "uint256"
        },
        {
          "internalType": "bytes",
          "name": "data",
          "type": "bytes"
        }
      ],
      "name": "safeTransferFrom",
      "outputs": [],
      "stateMutability": "nonpayable",
      "type": "function"
    },
    {
      "inputs": [
        {
          "internalType": "address",
          "name": "operator",
          "type": "address"
        },
        {
          "internalType": "bool",
          "name": "approved",
          "type": "bool"
        }
      ],
      "name": "setApprovalForAll",
      "outputs": [],
      "stateMutability": "nonpayable",
      "type": "function"
    },
    {
      "inputs": [
        {
          "internalType": "string",
          "name": "_newBaseExtension",
          "type": "string"
        }
      ],
      "name": "setBaseExtension",
      "outputs": [],
      "stateMutability": "nonpayable",
      "type": "function"
    },
    {
      "inputs": [
        {
          "internalType": "string",
          "name": "_tokenBaseURI",
          "type": "string"
        }
      ],
      "name": "setBaseURI",
      "outputs": [],
      "stateMutability": "nonpayable",
      "type": "function"
    },
    {
      "inputs": [
        {
          "internalType": "bytes32",
          "name": "merkleroot",
          "type": "bytes32"
        }
      ],
      "name": "setMerkleRoot",
      "outputs": [],
      "stateMutability": "nonpayable",
      "type": "function"
    },
    {
      "inputs": [
        {
          "internalType": "string",
          "name": "_notRevealedURI",
          "type": "string"
        }
      ],
      "name": "setNotRevealedURI",
      "outputs": [],
      "stateMutability": "nonpayable",
      "type": "function"
    },
    {
      "inputs": [
        {
          "internalType": "address",
          "name": "account",
          "type": "address"
        }
      ],
      "name": "shares",
      "outputs": [
        {
          "internalType": "uint256",
          "name": "",
          "type": "uint256"
        }
      ],
      "stateMutability": "view",
      "type": "function"
    },
    {
      "inputs": [
        {
          "internalType": "bytes4",
          "name": "interfaceId",
          "type": "bytes4"
        }
      ],
      "name": "supportsInterface",
      "outputs": [
        {
          "internalType": "bool",
          "name": "",
          "type": "bool"
        }
      ],
      "stateMutability": "view",
      "type": "function"
    },
    {
      "inputs": [],
      "name": "symbol",
      "outputs": [
        {
          "internalType": "string",
          "name": "",
          "type": "string"
        }
      ],
      "stateMutability": "view",
      "type": "function"
    },
    {
      "inputs": [],
      "name": "togglePause",
      "outputs": [],
      "stateMutability": "nonpayable",
      "type": "function"
    },
    {
      "inputs": [],
      "name": "togglePresale",
      "outputs": [],
      "stateMutability": "nonpayable",
      "type": "function"
    },
    {
      "inputs": [],
      "name": "togglePublicSale",
      "outputs": [],
      "stateMutability": "nonpayable",
      "type": "function"
    },
    {
      "inputs": [
        {
          "internalType": "uint256",
          "name": "tokenId",
          "type": "uint256"
        }
      ],
      "name": "tokenURI",
      "outputs": [
        {
          "internalType": "string",
          "name": "",
          "type": "string"
        }
      ],
      "stateMutability": "view",
      "type": "function"
    },
    {
      "inputs": [
        {
          "internalType": "contract IERC20",
          "name": "token",
          "type": "address"
        }
      ],
      "name": "totalReleased",
      "outputs": [
        {
          "internalType": "uint256",
          "name": "",
          "type": "uint256"
        }
      ],
      "stateMutability": "view",
      "type": "function"
    },
    {
      "inputs": [],
      "name": "totalReleased",
      "outputs": [
        {
          "internalType": "uint256",
          "name": "",
          "type": "uint256"
        }
      ],
      "stateMutability": "view",
      "type": "function"
    },
    {
      "inputs": [],
      "name": "totalShares",
      "outputs": [
        {
          "internalType": "uint256",
          "name": "",
          "type": "uint256"
        }
      ],
      "stateMutability": "view",
      "type": "function"
    },
    {
      "inputs": [],
      "name": "totalSupply",
      "outputs": [
        {
          "internalType": "uint256",
          "name": "",
          "type": "uint256"
        }
      ],
      "stateMutability": "view",
      "type": "function"
    },
    {
      "inputs": [
        {
          "internalType": "address",
          "name": "from",
          "type": "address"
        },
        {
          "internalType": "address",
          "name": "to",
          "type": "address"
        },
        {
          "internalType": "uint256",
          "name": "tokenId",
          "type": "uint256"
        }
      ],
      "name": "transferFrom",
      "outputs": [],
      "stateMutability": "nonpayable",
      "type": "function"
    },
    {
      "inputs": [
        {
          "internalType": "address",
          "name": "newOwner",
          "type": "address"
        }
      ],
      "name": "transferOwnership",
      "outputs": [],
      "stateMutability": "nonpayable",
      "type": "function"
    },
    {
      "stateMutability": "payable",
      "type": "receive"
    }
  ],
  "bytecode": "0x6103e76011556101006040526046608081815290620039a960a039805162000030916013916020909101906200067f565b5060408051808201909152600580825264173539b7b760d91b60209092019182526200005f916014916200067f565b506015805463ffffffff191690556003601655661b5b1bf4c540006018556040805180820190915260328082526020820152620000a190601a9060026200070e565b506040805180820190915273c854e7d3fd76f759ed41b9050d1ea06314bcc8ef8152739edda403ec1fb8577a3fd965f250fd97c66552e56020820152620000ed90601b90600262000751565b50348015620000fb57600080fd5b50604051620039ef380380620039ef8339810160408190526200011e91620007f3565b601b8054806020026020016040519081016040528092919081815260200182805480156200017657602002820191906000526020600020905b81546001600160a01b0316815260019091019060200180831162000157575b5050505050601a805480602002602001604051908101604052809291908181526020018280548015620001c957602002820191906000526020600020905b815481526020019060010190808311620001b4575b505060408051808201825260078152664f4c4144494e5360c81b6020808301918252835180850190945260038452624f4c4160e81b9084015281519195509193506200021a9250600091906200067f565b508051620002309060019060208401906200067f565b5050506200024d62000247620003ba60201b60201c565b620003be565b60016007558051825114620002c45760405162461bcd60e51b815260206004820152603260248201527f5061796d656e7453706c69747465723a2070617965657320616e6420736861726044820152710cae640d8cadccee8d040dad2e6dac2e8c6d60731b60648201526084015b60405180910390fd5b6000825111620003175760405162461bcd60e51b815260206004820152601a60248201527f5061796d656e7453706c69747465723a206e6f207061796565730000000000006044820152606401620002bb565b60005b825181101562000383576200036e8382815181106200033d576200033d620008ee565b60200260200101518383815181106200035a576200035a620008ee565b60200260200101516200041060201b60201c565b806200037a816200091a565b9150506200031a565b505050600f829055601080546001600160a01b0319166001600160a01b038316179055620003b183620005fe565b50505062000990565b3390565b600680546001600160a01b038381166001600160a01b0319831681179093556040519116919082907f8be0079c531659141344cd1fd0a4f28419497f9722a3daafe3b4186f6b6457e090600090a35050565b6001600160a01b0382166200047d5760405162461bcd60e51b815260206004820152602c60248201527f5061796d656e7453706c69747465723a206163636f756e74206973207468652060448201526b7a65726f206164647265737360a01b6064820152608401620002bb565b60008111620004cf5760405162461bcd60e51b815260206004820152601d60248201527f5061796d656e7453706c69747465723a207368617265732061726520300000006044820152606401620002bb565b6001600160a01b0382166000908152600a6020526040902054156200054b5760405162461bcd60e51b815260206004820152602b60248201527f5061796d656e7453706c69747465723a206163636f756e7420616c726561647960448201526a206861732073686172657360a81b6064820152608401620002bb565b600c8054600181019091557fdf6966c971051c3d54ec59162606531493a51404a002842f56009d7e5cf4a8c70180546001600160a01b0319166001600160a01b0384169081179091556000908152600a60205260409020819055600854620005b590829062000938565b600855604080516001600160a01b0384168152602081018390527f40c340f65e17194d14ddddb073d3c9f888e3cb52b5aae0c6c7706b4fbc905fac910160405180910390a15050565b6200060862000621565b80516200061d9060129060208401906200067f565b5050565b6006546001600160a01b031633146200067d5760405162461bcd60e51b815260206004820181905260248201527f4f776e61626c653a2063616c6c6572206973206e6f7420746865206f776e65726044820152606401620002bb565b565b8280546200068d9062000953565b90600052602060002090601f016020900481019282620006b15760008555620006fc565b82601f10620006cc57805160ff1916838001178555620006fc565b82800160010185558215620006fc579182015b82811115620006fc578251825591602001919060010190620006df565b506200070a929150620007a9565b5090565b828054828255906000526020600020908101928215620006fc579160200282015b82811115620006fc578251829060ff169055916020019190600101906200072f565b828054828255906000526020600020908101928215620006fc579160200282015b82811115620006fc57825182546001600160a01b0319166001600160a01b0390911617825560209092019160019091019062000772565b5b808211156200070a5760008155600101620007aa565b634e487b7160e01b600052604160045260246000fd5b80516001600160a01b0381168114620007ee57600080fd5b919050565b6000806000606084860312156200080957600080fd5b83516001600160401b03808211156200082157600080fd5b818601915086601f8301126200083657600080fd5b8151818111156200084b576200084b620007c0565b604051601f8201601f19908116603f01168101908382118183101715620008765762000876620007c0565b816040528281526020935089848487010111156200089357600080fd5b600091505b82821015620008b7578482018401518183018501529083019062000898565b82821115620008c95760008484830101525b8097505050508086015193505050620008e560408501620007d6565b90509250925092565b634e487b7160e01b600052603260045260246000fd5b634e487b7160e01b600052601160045260246000fd5b600060001982141562000931576200093162000904565b5060010190565b600082198211156200094e576200094e62000904565b500190565b600181811c908216806200096857607f821691505b602082108114156200098a57634e487b7160e01b600052602260045260246000fd5b50919050565b61300980620009a06000396000f3fe6080604052600436106102975760003560e01c80638da5cb5b1161015a578063c6682862116100c1578063e222c7f91161007a578063e222c7f91461083f578063e33b7de314610854578063e985e9c514610869578063ebf0c71714610889578063f2c4ce1e1461089f578063f2fde38b146108bf57600080fd5b8063c668286214610768578063c87b56dd1461077d578063ce7c2ac21461079d578063d5abeb01146107d3578063d79779b2146107e9578063da3ef23f1461081f57600080fd5b8063a45063c011610113578063a45063c0146106ca578063a475b5dd146106eb578063b3ab66b014610700578063b88d4fde14610713578063c45ac05014610733578063c4ae31681461075357600080fd5b80638da5cb5b1461060e578063954dc3e31461062c57806395d89b411461063f5780639852595c14610654578063a22cb4651461068a578063a3f8eace146106aa57600080fd5b806342842e0e116101fe5780636c0360eb116101b75780636c0360eb1461055757806370a082311461056c578063715018a61461058c5780637cb64759146105a15780638b83209b146105c15780638cc4de19146105e157600080fd5b806342842e0e1461049e57806348b75044146104be57806351830227146104de57806355f804b3146104fd5780635c975abb1461051d5780636352211e1461053757600080fd5b806318160ddd1161025057806318160ddd146103cb57806319165587146103ee57806323b872dd1461040e578063343937431461042e5780633a98ef3914610443578063406072a91461045857600080fd5b806301ffc9a7146102e557806306fdde031461031a578063081812fc1461033c578063081c8c4414610374578063095ea7b3146103895780631798d58b146103ab57600080fd5b366102e0577f6ef95f06320e7a25a04a175ca677b7052bdd97131872c2192525a629f51be77033604080516001600160a01b0390921682523460208301520160405180910390a1005b600080fd5b3480156102f157600080fd5b506103056103003660046127d7565b6108df565b60405190151581526020015b60405180910390f35b34801561032657600080fd5b5061032f610931565b604051610311919061284c565b34801561034857600080fd5b5061035c61035736600461285f565b6109c3565b6040516001600160a01b039091168152602001610311565b34801561038057600080fd5b5061032f6109ea565b34801561039557600080fd5b506103a96103a436600461288d565b610a78565b005b3480156103b757600080fd5b506015546103059062010000900460ff1681565b3480156103d757600080fd5b506103e0610b93565b604051908152602001610311565b3480156103fa57600080fd5b506103a96104093660046128b9565b610ba3565b34801561041a57600080fd5b506103a96104293660046128d6565b610c87565b34801561043a57600080fd5b506103a9610cb8565b34801561044f57600080fd5b506008546103e0565b34801561046457600080fd5b506103e0610473366004612917565b6001600160a01b039182166000908152600e6020908152604080832093909416825291909152205490565b3480156104aa57600080fd5b506103a96104b93660046128d6565b610cdf565b3480156104ca57600080fd5b506103a96104d9366004612917565b610cfa565b3480156104ea57600080fd5b5060155461030590610100900460ff1681565b34801561050957600080fd5b506103a96105183660046129dc565b610e08565b34801561052957600080fd5b506015546103059060ff1681565b34801561054357600080fd5b5061035c61055236600461285f565b610e27565b34801561056357600080fd5b5061032f610e87565b34801561057857600080fd5b506103e06105873660046128b9565b610e94565b34801561059857600080fd5b506103a9610f1a565b3480156105ad57600080fd5b506103a96105bc36600461285f565b610f2e565b3480156105cd57600080fd5b5061035c6105dc36600461285f565b610f3b565b3480156105ed57600080fd5b506103e06105fc3660046128b9565b60176020526000908152604090205481565b34801561061a57600080fd5b506006546001600160a01b031661035c565b6103a961063a366004612a25565b610f6b565b34801561064b57600080fd5b5061032f611294565b34801561066057600080fd5b506103e061066f3660046128b9565b6001600160a01b03166000908152600b602052604090205490565b34801561069657600080fd5b506103a96106a5366004612abf565b6112a3565b3480156106b657600080fd5b506103e06106c53660046128b9565b6112ae565b3480156106d657600080fd5b50601554610305906301000000900460ff1681565b3480156106f757600080fd5b506103a96112f6565b6103a961070e36600461285f565b61130f565b34801561071f57600080fd5b506103a961072e366004612aed565b61150c565b34801561073f57600080fd5b506103e061074e366004612917565b611544565b34801561075f57600080fd5b506103a961161e565b34801561077457600080fd5b5061032f61163a565b34801561078957600080fd5b5061032f61079836600461285f565b611647565b3480156107a957600080fd5b506103e06107b83660046128b9565b6001600160a01b03166000908152600a602052604090205490565b3480156107df57600080fd5b506103e060115481565b3480156107f557600080fd5b506103e06108043660046128b9565b6001600160a01b03166000908152600d602052604090205490565b34801561082b57600080fd5b506103a961083a3660046129dc565b6117c5565b34801561084b57600080fd5b506103a96117e0565b34801561086057600080fd5b506009546103e0565b34801561087557600080fd5b50610305610884366004612917565b611809565b34801561089557600080fd5b506103e0600f5481565b3480156108ab57600080fd5b506103a96108ba3660046129dc565b6118d5565b3480156108cb57600080fd5b506103a96108da3660046128b9565b6118f0565b60006001600160e01b031982166380ac58cd60e01b148061091057506001600160e01b03198216635b5e139f60e01b145b8061092b57506301ffc9a760e01b6001600160e01b03198316145b92915050565b60606000805461094090612b6d565b80601f016020809104026020016040519081016040528092919081815260200182805461096c90612b6d565b80156109b95780601f1061098e576101008083540402835291602001916109b9565b820191906000526020600020905b81548152906001019060200180831161099c57829003601f168201915b5050505050905090565b60006109ce82611969565b506000908152600460205260409020546001600160a01b031690565b601380546109f790612b6d565b80601f0160208091040260200160405190810160405280929190818152602001828054610a2390612b6d565b8015610a705780601f10610a4557610100808354040283529160200191610a70565b820191906000526020600020905b815481529060010190602001808311610a5357829003601f168201915b505050505081565b6000610a8382610e27565b9050806001600160a01b0316836001600160a01b03161415610af65760405162461bcd60e51b815260206004820152602160248201527f4552433732313a20617070726f76616c20746f2063757272656e74206f776e656044820152603960f91b60648201526084015b60405180910390fd5b336001600160a01b0382161480610b125750610b128133611809565b610b845760405162461bcd60e51b815260206004820152603d60248201527f4552433732313a20617070726f76652063616c6c6572206973206e6f7420746f60448201527f6b656e206f776e6572206f7220617070726f76656420666f7220616c6c0000006064820152608401610aed565b610b8e83836119c8565b505050565b6000610b9e60195490565b905090565b6001600160a01b0381166000908152600a6020526040902054610bd85760405162461bcd60e51b8152600401610aed90612ba8565b6000610be3826112ae565b905080610c025760405162461bcd60e51b8152600401610aed90612bee565b8060096000828254610c149190612c4f565b90915550506001600160a01b0382166000908152600b60205260409020805482019055610c418282611a36565b604080516001600160a01b0384168152602081018390527fdf20fd1e76bc69d672e4814fafb2c449bba3a5369d8359adf9e05e6fde87b056910160405180910390a15050565b610c913382611b4f565b610cad5760405162461bcd60e51b8152600401610aed90612c67565b610b8e838383611bad565b610cc0611d11565b6015805462ff0000198116620100009182900460ff1615909102179055565b610b8e8383836040518060200160405280600081525061150c565b6001600160a01b0381166000908152600a6020526040902054610d2f5760405162461bcd60e51b8152600401610aed90612ba8565b6000610d3b8383611544565b905080610d5a5760405162461bcd60e51b8152600401610aed90612bee565b6001600160a01b0383166000908152600d602052604081208054839290610d82908490612c4f565b90915550506001600160a01b038084166000908152600e60209081526040808320938616835292905220805482019055610dbd838383611d6b565b604080516001600160a01b038481168252602082018490528516917f3be5b7a71e84ed12875d241991c70855ac5817d847039e17a9d895c1ceb0f18a910160405180910390a2505050565b610e10611d11565b8051610e23906012906020840190612728565b5050565b6000818152600260205260408120546001600160a01b03168061092b5760405162461bcd60e51b8152602060048201526018602482015277115490cdcc8c4e881a5b9d985b1a59081d1bdad95b88125160421b6044820152606401610aed565b601280546109f790612b6d565b60006001600160a01b038216610efe5760405162461bcd60e51b815260206004820152602960248201527f4552433732313a2061646472657373207a65726f206973206e6f7420612076616044820152683634b21037bbb732b960b91b6064820152608401610aed565b506001600160a01b031660009081526003602052604090205490565b610f22611d11565b610f2c6000611dbd565b565b610f36611d11565b600f55565b6000600c8281548110610f5057610f50612cb4565b6000918252602090912001546001600160a01b031692915050565b8181610fe282828080602002602001604051908101604052809392919081815260200183836020028082843760009201919091525050600f546040516bffffffffffffffffffffffff193360601b166020820152909250603401905060405160208183030381529060405280519060200120611e0f565b15156001146110035760405162461bcd60e51b8152600401610aed90612cca565b3332146110225760405162461bcd60e51b8152600401610aed90612cca565b336001600160a01b038716146110715760405162461bcd60e51b815260206004820152601460248201527313db18591a5b9cce88139bdd08185b1b1bddd95960621b6044820152606401610aed565b60155462010000900460ff166110c95760405162461bcd60e51b815260206004820152601760248201527f4f6c6164696e733a2050726573616c65206973204f46460000000000000000006044820152606401610aed565b60155460ff161561111c5760405162461bcd60e51b815260206004820152601b60248201527f4f6c6164696e733a20436f6e74726163742069732070617573656400000000006044820152606401610aed565b60165485111561113e5760405162461bcd60e51b8152600401610aed90612cf6565b6016543360009081526017602052604090205461115c908790612c4f565b111561117a5760405162461bcd60e51b8152600401610aed90612cf6565b600061118560195490565b6011549091506111958783612c4f565b11156111e35760405162461bcd60e51b815260206004820152601c60248201527f4f6c6164696e733a206d617820737570706c79206578636565646564000000006044820152606401610aed565b34866018546111f29190612d3c565b11156112405760405162461bcd60e51b815260206004820152601f60248201527f4f6c6164696e733a204e6f7420656e6f756768206574686572732073656e74006044820152606401610aed565b336000908152601760205260408120805488929061125f908490612c4f565b90915550600090505b8681101561128a57611278611e25565b8061128281612d5b565b915050611268565b5050505050505050565b60606001805461094090612b6d565b610e23338383611e5d565b6000806112ba60095490565b6112c49047612c4f565b90506112ef83826112ea866001600160a01b03166000908152600b602052604090205490565b611f2c565b9392505050565b6112fe611d11565b6015805461ff001916610100179055565b33321461132e5760405162461bcd60e51b8152600401610aed90612cca565b6015546301000000900460ff166113875760405162461bcd60e51b815260206004820152601a60248201527f4f6c6164696e733a205075626c696353616c65206973204f46460000000000006044820152606401610aed565b60155460ff16156113da5760405162461bcd60e51b815260206004820152601b60248201527f4f6c6164696e733a20436f6e74726163742069732070617573656400000000006044820152606401610aed565b600081116114215760405162461bcd60e51b815260206004820152601460248201527313db18591a5b9cce881e995c9bc8185b5bdd5b9d60621b6044820152606401610aed565b600061142c60195490565b60115490915061143c8383612c4f565b111561148a5760405162461bcd60e51b815260206004820152601c60248201527f4f6c6164696e733a204d617820737570706c79206578636565646564000000006044820152606401610aed565b34826018546114999190612d3c565b11156114e75760405162461bcd60e51b815260206004820152601f60248201527f4f6c6164696e733a204e6f7420656e6f756768206574686572732073656e74006044820152606401610aed565b60005b82811015610b8e576114fa611e25565b8061150481612d5b565b9150506114ea565b6115163383611b4f565b6115325760405162461bcd60e51b8152600401610aed90612c67565b61153e84848484611f6a565b50505050565b6001600160a01b0382166000908152600d602052604081205481906040516370a0823160e01b81523060048201526001600160a01b038616906370a082319060240160206040518083038186803b15801561159e57600080fd5b505afa1580156115b2573d6000803e3d6000fd5b505050506040513d601f19601f820116820180604052508101906115d69190612d76565b6115e09190612c4f565b6001600160a01b038086166000908152600e60209081526040808320938816835292905220549091506116169084908390611f2c565b949350505050565b611626611d11565b6015805460ff19811660ff90911615179055565b601480546109f790612b6d565b6000818152600260205260409020546060906001600160a01b03166116c65760405162461bcd60e51b815260206004820152602f60248201527f4552433732314d657461646174613a2055524920717565727920666f72206e6f60448201526e3732bc34b9ba32b73a103a37b5b2b760891b6064820152608401610aed565b601554610100900460ff1661176757601380546116e290612b6d565b80601f016020809104026020016040519081016040528092919081815260200182805461170e90612b6d565b801561175b5780601f106117305761010080835404028352916020019161175b565b820191906000526020600020905b81548152906001019060200180831161173e57829003601f168201915b50505050509050919050565b6000611771611f9d565b9050600081511161179157604051806020016040528060008152506112ef565b8061179b84611fac565b60146040516020016117af93929190612d8f565b6040516020818303038152906040529392505050565b6117cd611d11565b8051610e23906014906020840190612728565b6117e8611d11565b6015805463ff00000019811663010000009182900460ff1615909102179055565b60105460405163c455279160e01b81526001600160a01b03848116600483015260009281169190841690829063c45527919060240160206040518083038186803b15801561185657600080fd5b505afa15801561186a573d6000803e3d6000fd5b505050506040513d601f19601f8201168201806040525081019061188e9190612e53565b6001600160a01b031614156118a757600191505061092b565b6001600160a01b0380851660009081526005602090815260408083209387168352929052205460ff16611616565b6118dd611d11565b8051610e23906013906020840190612728565b6118f8611d11565b6001600160a01b03811661195d5760405162461bcd60e51b815260206004820152602660248201527f4f776e61626c653a206e6577206f776e657220697320746865207a65726f206160448201526564647265737360d01b6064820152608401610aed565b61196681611dbd565b50565b6000818152600260205260409020546001600160a01b03166119665760405162461bcd60e51b8152602060048201526018602482015277115490cdcc8c4e881a5b9d985b1a59081d1bdad95b88125160421b6044820152606401610aed565b600081815260046020526040902080546001600160a01b0319166001600160a01b03841690811790915581906119fd82610e27565b6001600160a01b03167f8c5be1e5ebec7d5bd14f71427d1e84f3dd0314c0f7b2291e5b200ac8c7c3b92560405160405180910390a45050565b80471015611a865760405162461bcd60e51b815260206004820152601d60248201527f416464726573733a20696e73756666696369656e742062616c616e63650000006044820152606401610aed565b6000826001600160a01b03168260405160006040518083038185875af1925050503d8060008114611ad3576040519150601f19603f3d011682016040523d82523d6000602084013e611ad8565b606091505b5050905080610b8e5760405162461bcd60e51b815260206004820152603a60248201527f416464726573733a20756e61626c6520746f2073656e642076616c75652c207260448201527f6563697069656e74206d617920686176652072657665727465640000000000006064820152608401610aed565b600080611b5b83610e27565b9050806001600160a01b0316846001600160a01b03161480611b825750611b828185611809565b806116165750836001600160a01b0316611b9b846109c3565b6001600160a01b031614949350505050565b826001600160a01b0316611bc082610e27565b6001600160a01b031614611be65760405162461bcd60e51b8152600401610aed90612e70565b6001600160a01b038216611c485760405162461bcd60e51b8152602060048201526024808201527f4552433732313a207472616e7366657220746f20746865207a65726f206164646044820152637265737360e01b6064820152608401610aed565b826001600160a01b0316611c5b82610e27565b6001600160a01b031614611c815760405162461bcd60e51b8152600401610aed90612e70565b600081815260046020908152604080832080546001600160a01b03199081169091556001600160a01b0387811680865260038552838620805460001901905590871680865283862080546001019055868652600290945282852080549092168417909155905184937fddf252ad1be2c89b69c2b068fc378daa952ba7f163c4a11628f55a4df523b3ef91a4505050565b6006546001600160a01b03163314610f2c5760405162461bcd60e51b815260206004820181905260248201527f4f776e61626c653a2063616c6c6572206973206e6f7420746865206f776e65726044820152606401610aed565b604080516001600160a01b038416602482015260448082018490528251808303909101815260649091019091526020810180516001600160e01b031663a9059cbb60e01b179052610b8e908490612049565b600680546001600160a01b038381166001600160a01b0319831681179093556040519116919082907f8be0079c531659141344cd1fd0a4f28419497f9722a3daafe3b4186f6b6457e090600090a35050565b600082611e1c858461211b565b14949350505050565b611e2d612160565b611e3b601980546001019055565b6000611e4660195490565b9050611e5233826121ba565b50610f2c6001600755565b816001600160a01b0316836001600160a01b03161415611ebf5760405162461bcd60e51b815260206004820152601960248201527f4552433732313a20617070726f766520746f2063616c6c6572000000000000006044820152606401610aed565b6001600160a01b03838116600081815260056020908152604080832094871680845294825291829020805460ff191686151590811790915591519182527f17307eab39ab6107e8899845ad3d59bd9653f200f220920489ca2b5937696c31910160405180910390a3505050565b6008546001600160a01b0384166000908152600a602052604081205490918391611f569086612d3c565b611f609190612eb5565b6116169190612ed7565b611f75848484611bad565b611f81848484846121d4565b61153e5760405162461bcd60e51b8152600401610aed90612eee565b60606012805461094090612b6d565b60606000611fb9836122e1565b600101905060008167ffffffffffffffff811115611fd957611fd9612950565b6040519080825280601f01601f191660200182016040528015612003576020820181803683370190505b5090508181016020015b600019016f181899199a1a9b1b9c1cb0b131b232b360811b600a86061a8153600a850494508461203c57612041565b61200d565b509392505050565b600061209e826040518060400160405280602081526020017f5361666545524332303a206c6f772d6c6576656c2063616c6c206661696c6564815250856001600160a01b03166123b99092919063ffffffff16565b805190915015610b8e57808060200190518101906120bc9190612f40565b610b8e5760405162461bcd60e51b815260206004820152602a60248201527f5361666545524332303a204552433230206f7065726174696f6e20646964206e6044820152691bdd081cdd58d8d9595960b21b6064820152608401610aed565b600081815b84518110156120415761214c8286838151811061213f5761213f612cb4565b60200260200101516123c8565b91508061215881612d5b565b915050612120565b600260075414156121b35760405162461bcd60e51b815260206004820152601f60248201527f5265656e7472616e637947756172643a207265656e7472616e742063616c6c006044820152606401610aed565b6002600755565b610e238282604051806020016040528060008152506123f4565b60006001600160a01b0384163b156122d657604051630a85bd0160e11b81526001600160a01b0385169063150b7a0290612218903390899088908890600401612f5d565b602060405180830381600087803b15801561223257600080fd5b505af1925050508015612262575060408051601f3d908101601f1916820190925261225f91810190612f9a565b60015b6122bc573d808015612290576040519150601f19603f3d011682016040523d82523d6000602084013e612295565b606091505b5080516122b45760405162461bcd60e51b8152600401610aed90612eee565b805181602001fd5b6001600160e01b031916630a85bd0160e11b149050611616565b506001949350505050565b60008072184f03e93ff9f4daa797ed6e38ed64bf6a1f0160401b83106123205772184f03e93ff9f4daa797ed6e38ed64bf6a1f0160401b830492506040015b6d04ee2d6d415b85acef8100000000831061234c576d04ee2d6d415b85acef8100000000830492506020015b662386f26fc10000831061236a57662386f26fc10000830492506010015b6305f5e1008310612382576305f5e100830492506008015b612710831061239657612710830492506004015b606483106123a8576064830492506002015b600a831061092b5760010192915050565b60606116168484600085612427565b60008183106123e45760008281526020849052604090206112ef565b5060009182526020526040902090565b6123fe8383612502565b61240b60008484846121d4565b610b8e5760405162461bcd60e51b8152600401610aed90612eee565b6060824710156124885760405162461bcd60e51b815260206004820152602660248201527f416464726573733a20696e73756666696369656e742062616c616e636520666f6044820152651c8818d85b1b60d21b6064820152608401610aed565b600080866001600160a01b031685876040516124a49190612fb7565b60006040518083038185875af1925050503d80600081146124e1576040519150601f19603f3d011682016040523d82523d6000602084013e6124e6565b606091505b50915091506124f78783838761268d565b979650505050505050565b6001600160a01b0382166125585760405162461bcd60e51b815260206004820181905260248201527f4552433732313a206d696e7420746f20746865207a65726f20616464726573736044820152606401610aed565b6000818152600260205260409020546001600160a01b0316156125bd5760405162461bcd60e51b815260206004820152601c60248201527f4552433732313a20746f6b656e20616c7265616479206d696e746564000000006044820152606401610aed565b6000818152600260205260409020546001600160a01b0316156126225760405162461bcd60e51b815260206004820152601c60248201527f4552433732313a20746f6b656e20616c7265616479206d696e746564000000006044820152606401610aed565b6001600160a01b038216600081815260036020908152604080832080546001019055848352600290915280822080546001600160a01b0319168417905551839291907fddf252ad1be2c89b69c2b068fc378daa952ba7f163c4a11628f55a4df523b3ef908290a45050565b606083156126f95782516126f2576001600160a01b0385163b6126f25760405162461bcd60e51b815260206004820152601d60248201527f416464726573733a2063616c6c20746f206e6f6e2d636f6e74726163740000006044820152606401610aed565b5081611616565b611616838381511561270e5781518083602001fd5b8060405162461bcd60e51b8152600401610aed919061284c565b82805461273490612b6d565b90600052602060002090601f016020900481019282612756576000855561279c565b82601f1061276f57805160ff191683800117855561279c565b8280016001018555821561279c579182015b8281111561279c578251825591602001919060010190612781565b506127a89291506127ac565b5090565b5b808211156127a857600081556001016127ad565b6001600160e01b03198116811461196657600080fd5b6000602082840312156127e957600080fd5b81356112ef816127c1565b60005b8381101561280f5781810151838201526020016127f7565b8381111561153e5750506000910152565b600081518084526128388160208601602086016127f4565b601f01601f19169290920160200192915050565b6020815260006112ef6020830184612820565b60006020828403121561287157600080fd5b5035919050565b6001600160a01b038116811461196657600080fd5b600080604083850312156128a057600080fd5b82356128ab81612878565b946020939093013593505050565b6000602082840312156128cb57600080fd5b81356112ef81612878565b6000806000606084860312156128eb57600080fd5b83356128f681612878565b9250602084013561290681612878565b929592945050506040919091013590565b6000806040838503121561292a57600080fd5b823561293581612878565b9150602083013561294581612878565b809150509250929050565b634e487b7160e01b600052604160045260246000fd5b600067ffffffffffffffff8084111561298157612981612950565b604051601f8501601f19908116603f011681019082821181831017156129a9576129a9612950565b816040528093508581528686860111156129c257600080fd5b858560208301376000602087830101525050509392505050565b6000602082840312156129ee57600080fd5b813567ffffffffffffffff811115612a0557600080fd5b8201601f81018413612a1657600080fd5b61161684823560208401612966565b60008060008060608587031215612a3b57600080fd5b8435612a4681612878565b935060208501359250604085013567ffffffffffffffff80821115612a6a57600080fd5b818701915087601f830112612a7e57600080fd5b813581811115612a8d57600080fd5b8860208260051b8501011115612aa257600080fd5b95989497505060200194505050565b801515811461196657600080fd5b60008060408385031215612ad257600080fd5b8235612add81612878565b9150602083013561294581612ab1565b60008060008060808587031215612b0357600080fd5b8435612b0e81612878565b93506020850135612b1e81612878565b925060408501359150606085013567ffffffffffffffff811115612b4157600080fd5b8501601f81018713612b5257600080fd5b612b6187823560208401612966565b91505092959194509250565b600181811c90821680612b8157607f821691505b60208210811415612ba257634e487b7160e01b600052602260045260246000fd5b50919050565b60208082526026908201527f5061796d656e7453706c69747465723a206163636f756e7420686173206e6f2060408201526573686172657360d01b606082015260800190565b6020808252602b908201527f5061796d656e7453706c69747465723a206163636f756e74206973206e6f742060408201526a191d59481c185e5b595b9d60aa1b606082015260800190565b634e487b7160e01b600052601160045260246000fd5b60008219821115612c6257612c62612c39565b500190565b6020808252602d908201527f4552433732313a2063616c6c6572206973206e6f7420746f6b656e206f776e6560408201526c1c881bdc88185c1c1c9bdd9959609a1b606082015260800190565b634e487b7160e01b600052603260045260246000fd5b6020808252601290820152712737ba1030b63637bbb2b21037b934b3b4b760711b604082015260600190565b60208082526026908201527f4f6c6164696e733a20596f752063616e2774206d696e7420736f206d75636820604082015265746f6b656e7360d01b606082015260800190565b6000816000190483118215151615612d5657612d56612c39565b500290565b6000600019821415612d6f57612d6f612c39565b5060010190565b600060208284031215612d8857600080fd5b5051919050565b600084516020612da28285838a016127f4565b855191840191612db58184848a016127f4565b8554920191600090600181811c9080831680612dd257607f831692505b858310811415612df057634e487b7160e01b85526022600452602485fd5b808015612e045760018114612e1557612e42565b60ff19851688528388019550612e42565b60008b81526020902060005b85811015612e3a5781548a820152908401908801612e21565b505083880195505b50939b9a5050505050505050505050565b600060208284031215612e6557600080fd5b81516112ef81612878565b60208082526025908201527f4552433732313a207472616e736665722066726f6d20696e636f72726563742060408201526437bbb732b960d91b606082015260800190565b600082612ed257634e487b7160e01b600052601260045260246000fd5b500490565b600082821015612ee957612ee9612c39565b500390565b60208082526032908201527f4552433732313a207472616e7366657220746f206e6f6e20455243373231526560408201527131b2b4bb32b91034b6b83632b6b2b73a32b960711b606082015260800190565b600060208284031215612f5257600080fd5b81516112ef81612ab1565b6001600160a01b0385811682528416602082015260408101839052608060608201819052600090612f9090830184612820565b9695505050505050565b600060208284031215612fac57600080fd5b81516112ef816127c1565b60008251612fc98184602087016127f4565b919091019291505056fea264697066735822122018a81eddce096c2d89bf3d9d0192aa983c41c5ecad91d9a8ee54ba279023de4164736f6c63430008090033697066733a2f2f516d64324c435242596d5338454e51685a51656f4458696d4a794b71366158345554763579633677594e725931712f68696464656e2e6a736f6e2e6a736f6e",
  "linkReferences": {},
  "deployedLinkReferences": {}
}